{
  "contractName": "Campaign",
  "abi": [
    {
      "inputs": [
        {
          "internalType": "uint256",
          "name": "_minimumAmount",
          "type": "uint256"
        },
        {
          "internalType": "address",
          "name": "creator",
          "type": "address"
        }
      ],
      "stateMutability": "nonpayable",
      "type": "constructor"
    },
    {
      "inputs": [
        {
          "internalType": "address",
          "name": "",
          "type": "address"
        }
      ],
      "name": "approvers",
      "outputs": [
        {
          "internalType": "bool",
          "name": "",
          "type": "bool"
        }
      ],
      "stateMutability": "view",
      "type": "function"
    },
    {
      "inputs": [],
      "name": "approversCount",
      "outputs": [
        {
          "internalType": "uint256",
          "name": "",
          "type": "uint256"
        }
      ],
      "stateMutability": "view",
      "type": "function"
    },
    {
      "inputs": [
        {
          "internalType": "address",
          "name": "",
          "type": "address"
        },
        {
          "internalType": "uint256",
          "name": "",
          "type": "uint256"
        }
      ],
      "name": "isApproved",
      "outputs": [
        {
          "internalType": "bool",
          "name": "",
          "type": "bool"
        }
      ],
      "stateMutability": "view",
      "type": "function"
    },
    {
      "inputs": [],
      "name": "manager",
      "outputs": [
        {
          "internalType": "address",
          "name": "",
          "type": "address"
        }
      ],
      "stateMutability": "view",
      "type": "function"
    },
    {
      "inputs": [],
      "name": "minimumAmount",
      "outputs": [
        {
          "internalType": "uint256",
          "name": "",
          "type": "uint256"
        }
      ],
      "stateMutability": "view",
      "type": "function"
    },
    {
      "inputs": [
        {
          "internalType": "uint256",
          "name": "",
          "type": "uint256"
        }
      ],
      "name": "requests",
      "outputs": [
        {
          "internalType": "uint256",
          "name": "id",
          "type": "uint256"
        },
        {
          "internalType": "string",
          "name": "description",
          "type": "string"
        },
        {
          "internalType": "address payable",
          "name": "recipient",
          "type": "address"
        },
        {
          "internalType": "uint256",
          "name": "amount",
          "type": "uint256"
        },
        {
          "internalType": "bool",
          "name": "complete",
          "type": "bool"
        },
        {
          "internalType": "uint256",
          "name": "approvalCount",
          "type": "uint256"
        }
      ],
      "stateMutability": "view",
      "type": "function"
    },
    {
      "inputs": [],
      "name": "contribute",
      "outputs": [],
      "stateMutability": "payable",
      "type": "function"
    },
    {
      "inputs": [
        {
          "internalType": "string",
          "name": "_description",
          "type": "string"
        },
        {
          "internalType": "address payable",
          "name": "_recipient",
          "type": "address"
        },
        {
          "internalType": "uint256",
          "name": "_amount",
          "type": "uint256"
        }
      ],
      "name": "createRequest",
      "outputs": [],
      "stateMutability": "nonpayable",
      "type": "function"
    },
    {
      "inputs": [
        {
          "internalType": "uint256",
          "name": "index",
          "type": "uint256"
        }
      ],
      "name": "approveRequest",
      "outputs": [],
      "stateMutability": "nonpayable",
      "type": "function"
    },
    {
      "inputs": [
        {
          "internalType": "uint256",
          "name": "index",
          "type": "uint256"
        }
      ],
      "name": "finalizeRequest",
      "outputs": [],
      "stateMutability": "nonpayable",
      "type": "function"
    },
    {
      "inputs": [],
      "name": "getCampaignBalance",
      "outputs": [
        {
          "internalType": "uint256",
          "name": "",
          "type": "uint256"
        }
      ],
      "stateMutability": "view",
      "type": "function"
    },
    {
      "inputs": [],
      "name": "getRequestCount",
      "outputs": [
        {
          "internalType": "uint256",
          "name": "",
          "type": "uint256"
        }
      ],
      "stateMutability": "view",
      "type": "function"
    }
  ],
  "bytecode": "0x60806040523480156200001157600080fd5b50604051620011f6380380620011f683398181016040528101906200003791906200012c565b80600160006101000a81548173ffffffffffffffffffffffffffffffffffffffff021916908373ffffffffffffffffffffffffffffffffffffffff16021790555081600281905550505062000173565b600080fd5b6000819050919050565b620000a1816200008c565b8114620000ad57600080fd5b50565b600081519050620000c18162000096565b92915050565b600073ffffffffffffffffffffffffffffffffffffffff82169050919050565b6000620000f482620000c7565b9050919050565b6200010681620000e7565b81146200011257600080fd5b50565b6000815190506200012681620000fb565b92915050565b6000806040838503121562000146576200014562000087565b5b60006200015685828601620000b0565b9250506020620001698582860162000115565b9150509250929050565b61107380620001836000396000f3fe6080604052600436106100a75760003560e01c806381d12c581161006457806381d12c58146101ce57806382fde09314610210578063bb0c82981461023b578063bfeba22714610266578063d7bb99ba14610291578063d7d1bbdb1461029b576100a7565b806303441006146100ac5780630a144391146100d55780631b16bb5c146101125780632a16cca41461013b5780633fad183414610178578063481c6a75146101a3575b600080fd5b3480156100b857600080fd5b506100d360048036038101906100ce9190610a63565b6102c4565b005b3480156100e157600080fd5b506100fc60048036038101906100f79190610aee565b61040e565b6040516101099190610b36565b60405180910390f35b34801561011e57600080fd5b5061013960048036038101906101349190610cd5565b61042e565b005b34801561014757600080fd5b50610162600480360381019061015d9190610d44565b6105c2565b60405161016f9190610b36565b60405180910390f35b34801561018457600080fd5b5061018d6105f1565b60405161019a9190610d93565b60405180910390f35b3480156101af57600080fd5b506101b86105fe565b6040516101c59190610dbd565b60405180910390f35b3480156101da57600080fd5b506101f560048036038101906101f09190610a63565b610624565b60405161020796959493929190610e6f565b60405180910390f35b34801561021c57600080fd5b50610225610725565b6040516102329190610d93565b60405180910390f35b34801561024757600080fd5b5061025061072b565b60405161025d9190610d93565b60405180910390f35b34801561027257600080fd5b5061027b610731565b6040516102889190610d93565b60405180910390f35b610299610739565b005b3480156102a757600080fd5b506102c260048036038101906102bd9190610a63565b61080b565b005b600160009054906101000a900473ffffffffffffffffffffffffffffffffffffffff1673ffffffffffffffffffffffffffffffffffffffff163373ffffffffffffffffffffffffffffffffffffffff161461031e57600080fd5b60006003828154811061033457610333610ed7565b5b906000526020600020906006020190508060040160009054906101000a900460ff161561036057600080fd5b600260045461036f9190610f64565b81600501541161037e57600080fd5b8060020160009054906101000a900473ffffffffffffffffffffffffffffffffffffffff1673ffffffffffffffffffffffffffffffffffffffff166108fc82600301549081150290604051600060405180830381858888f193505050501580156103ec573d6000803e3d6000fd5b5060018160040160006101000a81548160ff0219169083151502179055505050565b60056020528060005260406000206000915054906101000a900460ff1681565b600160009054906101000a900473ffffffffffffffffffffffffffffffffffffffff1673ffffffffffffffffffffffffffffffffffffffff163373ffffffffffffffffffffffffffffffffffffffff161461048857600080fd5b60008081548092919061049a90610f95565b919050555060006040518060c0016040528060005481526020018581526020018473ffffffffffffffffffffffffffffffffffffffff16815260200183815260200160001515815260200160008152509050600381908060018154018082558091505060019003906000526020600020906006020160009091909190915060008201518160000155602082015181600101908051906020019061053e929190610976565b5060408201518160020160006101000a81548173ffffffffffffffffffffffffffffffffffffffff021916908373ffffffffffffffffffffffffffffffffffffffff1602179055506060820151816003015560808201518160040160006101000a81548160ff02191690831515021790555060a08201518160050155505050505050565b60066020528160005260406000206020528060005260406000206000915091509054906101000a900460ff1681565b6000600380549050905090565b600160009054906101000a900473ffffffffffffffffffffffffffffffffffffffff1681565b6003818154811061063457600080fd5b906000526020600020906006020160009150905080600001549080600101805461065d9061100c565b80601f01602080910402602001604051908101604052809291908181526020018280546106899061100c565b80156106d65780601f106106ab576101008083540402835291602001916106d6565b820191906000526020600020905b8154815290600101906020018083116106b957829003601f168201915b5050505050908060020160009054906101000a900473ffffffffffffffffffffffffffffffffffffffff16908060030154908060040160009054906101000a900460ff16908060050154905086565b60045481565b60025481565b600047905090565b600254341161074757600080fd5b600560003373ffffffffffffffffffffffffffffffffffffffff1673ffffffffffffffffffffffffffffffffffffffff16815260200190815260200160002060009054906101000a900460ff166107b157600460008154809291906107ab90610f95565b91905055505b6001600560003373ffffffffffffffffffffffffffffffffffffffff1673ffffffffffffffffffffffffffffffffffffffff16815260200190815260200160002060006101000a81548160ff021916908315150217905550565b60006003828154811061082157610820610ed7565b5b90600052602060002090600602019050600560003373ffffffffffffffffffffffffffffffffffffffff1673ffffffffffffffffffffffffffffffffffffffff16815260200190815260200160002060009054906101000a900460ff1661088757600080fd5b600660003373ffffffffffffffffffffffffffffffffffffffff1673ffffffffffffffffffffffffffffffffffffffff168152602001908152602001600020600083815260200190815260200160002060009054906101000a900460ff16156108ef57600080fd5b6001600660003373ffffffffffffffffffffffffffffffffffffffff1673ffffffffffffffffffffffffffffffffffffffff168152602001908152602001600020600084815260200190815260200160002060006101000a81548160ff02191690831515021790555080600501600081548092919061096d90610f95565b91905055505050565b8280546109829061100c565b90600052602060002090601f0160209004810192826109a457600085556109eb565b82601f106109bd57805160ff19168380011785556109eb565b828001600101855582156109eb579182015b828111156109ea5782518255916020019190600101906109cf565b5b5090506109f891906109fc565b5090565b5b80821115610a155760008160009055506001016109fd565b5090565b6000604051905090565b600080fd5b600080fd5b6000819050919050565b610a4081610a2d565b8114610a4b57600080fd5b50565b600081359050610a5d81610a37565b92915050565b600060208284031215610a7957610a78610a23565b5b6000610a8784828501610a4e565b91505092915050565b600073ffffffffffffffffffffffffffffffffffffffff82169050919050565b6000610abb82610a90565b9050919050565b610acb81610ab0565b8114610ad657600080fd5b50565b600081359050610ae881610ac2565b92915050565b600060208284031215610b0457610b03610a23565b5b6000610b1284828501610ad9565b91505092915050565b60008115159050919050565b610b3081610b1b565b82525050565b6000602082019050610b4b6000830184610b27565b92915050565b600080fd5b600080fd5b6000601f19601f8301169050919050565b7f4e487b7100000000000000000000000000000000000000000000000000000000600052604160045260246000fd5b610ba482610b5b565b810181811067ffffffffffffffff82111715610bc357610bc2610b6c565b5b80604052505050565b6000610bd6610a19565b9050610be28282610b9b565b919050565b600067ffffffffffffffff821115610c0257610c01610b6c565b5b610c0b82610b5b565b9050602081019050919050565b82818337600083830152505050565b6000610c3a610c3584610be7565b610bcc565b905082815260208101848484011115610c5657610c55610b56565b5b610c61848285610c18565b509392505050565b600082601f830112610c7e57610c7d610b51565b5b8135610c8e848260208601610c27565b91505092915050565b6000610ca282610a90565b9050919050565b610cb281610c97565b8114610cbd57600080fd5b50565b600081359050610ccf81610ca9565b92915050565b600080600060608486031215610cee57610ced610a23565b5b600084013567ffffffffffffffff811115610d0c57610d0b610a28565b5b610d1886828701610c69565b9350506020610d2986828701610cc0565b9250506040610d3a86828701610a4e565b9150509250925092565b60008060408385031215610d5b57610d5a610a23565b5b6000610d6985828601610ad9565b9250506020610d7a85828601610a4e565b9150509250929050565b610d8d81610a2d565b82525050565b6000602082019050610da86000830184610d84565b92915050565b610db781610ab0565b82525050565b6000602082019050610dd26000830184610dae565b92915050565b600081519050919050565b600082825260208201905092915050565b60005b83811015610e12578082015181840152602081019050610df7565b83811115610e21576000848401525b50505050565b6000610e3282610dd8565b610e3c8185610de3565b9350610e4c818560208601610df4565b610e5581610b5b565b840191505092915050565b610e6981610c97565b82525050565b600060c082019050610e846000830189610d84565b8181036020830152610e968188610e27565b9050610ea56040830187610e60565b610eb26060830186610d84565b610ebf6080830185610b27565b610ecc60a0830184610d84565b979650505050505050565b7f4e487b7100000000000000000000000000000000000000000000000000000000600052603260045260246000fd5b7f4e487b7100000000000000000000000000000000000000000000000000000000600052601260045260246000fd5b7f4e487b7100000000000000000000000000000000000000000000000000000000600052601160045260246000fd5b6000610f6f82610a2d565b9150610f7a83610a2d565b925082610f8a57610f89610f06565b5b828204905092915050565b6000610fa082610a2d565b91507fffffffffffffffffffffffffffffffffffffffffffffffffffffffffffffffff8203610fd257610fd1610f35565b5b600182019050919050565b7f4e487b7100000000000000000000000000000000000000000000000000000000600052602260045260246000fd5b6000600282049050600182168061102457607f821691505b60208210810361103757611036610fdd565b5b5091905056fea2646970667358221220ef6d772a04b47fe69e98566b0e902bd28c12b91835081d3f640feb553f8e3a9664736f6c634300080d0033",
  "immutableReferences": {},
  "source": "// SPDX-License-Identifier: MIT\r\npragma solidity ^0.8;\r\n\r\ncontract CampaignFactory {\r\n    struct CampaignInfo {\r\n        uint256 id;\r\n        uint256 time;\r\n        string title;\r\n        string description;\r\n        string image;\r\n        Campaign campaign;\r\n    }\r\n\r\n    uint256 public campaignsCount = 0;\r\n    string public name = \"Campaign Factory\";\r\n    uint256 public campaignCount;\r\n    Campaign[] public deployedCampaign;\r\n    CampaignInfo[] public campaigns;\r\n\r\n    function createCampaign(\r\n        uint256 minimum,\r\n        string memory _title,\r\n        string memory _description,\r\n        string memory _image\r\n    ) public {\r\n        Campaign newCampaign = new Campaign(minimum, msg.sender);\r\n        CampaignInfo memory campaign = CampaignInfo(\r\n            campaignsCount,\r\n            block.timestamp,\r\n            _title,\r\n            _description,\r\n            _image,\r\n            newCampaign\r\n        );\r\n        campaigns.push(campaign);\r\n        deployedCampaign.push(newCampaign);\r\n        campaignCount++;\r\n        campaignsCount++;\r\n    }\r\n\r\n    function getDeployedcampaigns()\r\n        public\r\n        view\r\n        returns (CampaignInfo[] memory)\r\n    {\r\n        return campaigns;\r\n    }\r\n}\r\n\r\ncontract Campaign {\r\n    struct Request {\r\n        uint256 id;\r\n        string description;\r\n        address payable recipient;\r\n        uint256 amount;\r\n        bool complete;\r\n        uint256 approvalCount;\r\n    }\r\n\r\n    uint256 id;\r\n    address public manager;\r\n    uint256 public minimumAmount;\r\n    Request[] public requests;\r\n    uint256 public approversCount;\r\n    mapping(address => bool) public approvers;\r\n    mapping(address => mapping(uint256 => bool)) public isApproved;\r\n\r\n    modifier restricted() {\r\n        require(msg.sender == manager);\r\n        _;\r\n    }\r\n\r\n    constructor(uint256 _minimumAmount, address creator) {\r\n        manager = creator;\r\n        minimumAmount = _minimumAmount;\r\n    }\r\n\r\n    function contribute() public payable {\r\n        require(msg.value > minimumAmount);\r\n        if (!approvers[msg.sender]) {\r\n            approversCount++;\r\n        }\r\n        approvers[msg.sender] = true;\r\n    }\r\n\r\n    function createRequest(\r\n        string memory _description,\r\n        address payable _recipient,\r\n        uint256 _amount\r\n    ) public restricted {\r\n        id++;\r\n        Request memory newRequest = Request(\r\n            id,\r\n            _description,\r\n            _recipient,\r\n            _amount,\r\n            false,\r\n            0\r\n        );\r\n        requests.push(newRequest);\r\n    }\r\n\r\n    function approveRequest(uint256 index) public {\r\n        Request storage request = requests[index];\r\n        require(approvers[msg.sender]);\r\n        require(!isApproved[msg.sender][index]);\r\n\r\n        isApproved[msg.sender][index] = true;\r\n        request.approvalCount++;\r\n    }\r\n\r\n    function finalizeRequest(uint256 index) public restricted {\r\n        Request storage request = requests[index];\r\n        require(!request.complete);\r\n        require(request.approvalCount > (approversCount / 2));\r\n\r\n        payable(request.recipient).transfer(request.amount);\r\n        request.complete = true;\r\n    }\r\n\r\n    function getCampaignBalance() public view returns (uint256) {\r\n        return address(this).balance;\r\n    }\r\n\r\n    function getRequestCount() public view returns (uint256) {\r\n        return requests.length;\r\n    }\r\n}\r\n",
  "sourcePath": "C:\\Users\\shrav\\Desktop\\Blockchain\\startupdate\\src\\contracts\\CampaignFactory.sol",
  "compiler": {
    "name": "solc",
    "version": "0.8.13+commit.abaa5c0e.Emscripten.clang"
  },
  "schemaVersion": "3.4.6",
  "updatedAt": "2022-03-29T03:43:45.694Z",
  "devdoc": {
    "kind": "dev",
    "methods": {},
    "version": 1
  },
  "userdoc": {
    "kind": "user",
    "methods": {},
    "version": 1
  }
}